:020000040800F2
:10000000FFFF0120E9540008395500083955000860
:10001000395500083955000839550008000000001E
:10002000000000000000000000000000395500083A
:10003000395500080000000039550008DD58000857
:100040003955000839550008395500083955000858
:1000500039550008EB580008395500083955000893
:100060003955000839550008395500083955000838
:100070003955000839550008395500083955000828
:1000800039550008395500083955000800000000AE
:1000900000000000000000000000000039550008CA
:1000A00039550008395500083955000839550008F8
:1000B00039550008ED580008395500083955000831
:1000C00039550008395500083955000839550008D8
:1000D000395500083955000839550008000000005E
:1000E000395500083955000839550008000000004E
:1000F000000000000000000000000000395500086A
:10010000000000003955000839550008395500082D
:1001100000000000000000000000000000000000DF
:100120003955000839550008395500083955000877
:100130003955000800000000000000000000000029
:10014000000000000000000000000000F958000856
:100150003955000839550008395500083955000847
:100160003955000839550008000000000000000063
:10017000000000000000000000000000000000007F
:1001800000000000395500080000000000000000D9
:0401900039550008D5
:10019400704700BF704700BF10B5094B4FF0FF32E6
:1001A40000241A621C625A625C621A611C615A6100
:1001B4005C619A619C61FFF7EDFF204610BD00BFB2
:1001C40000380240084B094A1B6810B5A2FB032300
:1001D4000446980900F022F9214600224FF0FF302E
:1001E40000F0BAF8002010BD34040020D34D621092
:1001F40008B50B4B1A6842F400721A601A6842F48C
:1002040080621A601A6842F480721A60032000F057
:1002140091F80020FFF7D6FFFFF7BAFF002008BDD2
:10022400003C0240024A136801331360704700BF68
:1002340018120020014B1868704700BF18120020E4
:1002440010B582B00190FFF7F5FF0446FFF7F2FF07
:10025400019B001B9842F9D302B010BD024A1368F7
:1002640023F002031360704710E000E0024A1368B1
:1002740043F002031360704710E000E00048704749
:1002840000000501014B1868000C7047002004E0D1
:10029400024B1868C0F30B00704700BF002004E055
:1002A400024A536843F0010353607047002004E09E
:1002B400024A536823F0010353607047002004E0AE
:1002C400024A536843F0020353607047002004E07D
:1002D400024A536823F0020353607047002004E08D
:1002E400024A536843F0040353607047002004E05B
:1002F400024A536823F0040353607047002004E06B
:10030400012191FAA1F2034BB2FA82F213449B0049
:100314001960704700C18910012292FAA2F2044BBD
:10032400B2FA82F213449B0000221A60704700BFA5
:1003340000C18910074AD3684FF6FF010B40000241
:1003440043F0BF6300F4E06043F400330343D3603D
:10035400704700BF00ED00E0184B70B4DC68C4F3D4
:100364000224C4F10706042E04F1040328BF042662
:10037400062B17D9033C0125A540013D2A40012342
:10038400B340013B1940A140002841EA02010CDBC3
:1003940000F1604000F561400901C9B280F8001322
:1003A40070BC704700221446E9E7054B00F00F00CB
:1003B40009010344C9B2197670BC704700ED00E02E
:1003C400FCEC00E000F01F0101234009024A8B40CD
:1003D40042F82030704700BF00E100E043092033B9
:1003E40000F01F000122034902FA00F041F8230043
:1003F400704700BF00E100E0BFF34F8F0549064B93
:10040400CA6802F4E0621343CB60BFF34F8F00BFAE
:10041400FDE700BF00ED00E00400FA050138B0F18B
:10042400807F0ED2084B10B4084C5860F02084F83A
:1004340023000022072110469A6019605DF8044BDE
:1004440070470120704700BF10E000E000ED00E0BD
:1004540013494378F0B48B6004781CB9CC600C6108
:10046400F0BC70474368CB60C27A037B877A457BD4
:10047400867B120642EA0373234343EAC74343EAF3
:100484008543C57B447A027A43EA464343EA0543FB
:1004940043EA042343EA42030B61F0BC704700BF04
:1004A40090ED00E0024BD868C0F30220704700BF13
:1004B40000ED00E0002870B422DB00F1604000F59C
:1004C400614090F80043240901F00701C1F10706D7
:1004D400042E01F1040028BF042606280DD903398F
:1004E40001258D40013D25400120B040CC40411EF6
:1004F400214011601D6070BC704700252946F3E758
:10050400034C00F00F000444247E2409DCE700BF00
:10051400FCEC00E04309403300F01F0001220349D2
:1005240002FA00F041F82300704700BF00E100E048
:100534004309054A403300F01F0052F8233023FAE0
:1005440000F000F00100704700E100E0430960336F
:1005540000F01F000122034902FA00F041F82300D1
:10056400704700BF00E100E04309054A803300F012
:100574001F0052F8233023FA00F000F00100704706
:1005840000E100E0044A136804280CBF43F00403AC
:1005940023F004031360704710E000E0704700BFCD
:1005A40008B5FFF7FBFF08BD2DE9F04FD1F800C0F7
:1005B400DFF82882DFF828E283B0002503E0013564
:1005C400102D00F0A0800123AB4003EA0C029342FB
:1005D400F5D14E6826F0100ABAF1020F00F09680A9
:1005E4004FEA45090324D0F800B004FA09F4E443BF
:1005F40006F003070BEA040B07FA09F70AF1FF3ABE
:1006040047EA0B07BAF1010F076040F2A580C768FB
:100614008B683C4003FA09F32343C360F300CED54F
:100624004FF00009CDF80490D8F8443043F48043E7
:10063400C8F84430D8F8444025F0030303F180435C
:1006440004F4804403F59C33019405F00304019FF2
:10065400D3F808A0A4000F27A7402AEA070A594F95
:10066400B84227D007F58067B84200F08880564F1B
:10067400B84200F08980554FB84200F08A80544F48
:10068400B84200F08B80534FB84200F08C80524F38
:10069400B84200F08D80DFF84C91484500F08D8021
:1006A400DFF8449148450CBF4FF008094FF00909A1
:1006B40009FA04F94AEA09079F60DEF80030D443D6
:1006C400F70354BF23401343CEF80030DEF8043060
:1006D400B70354BF23401343CEF80430DEF8083088
:1006E400F70254BF23401343CEF80830DEF80C3031
:1006F400B60205F1010554BF23401343102DCEF873
:100704000C307FF460AF03B0BDE8F08F4FEAD50939
:1007140000EB890905F00707D9F82040BF004FF026
:100724000F0B0BFA07FB24EA0B0A0C69BC4044EAE2
:100734000A04C9F820404FEA45090324D0F800A070
:1007440004FA09F4E44306F003070AEA040A07FA80
:1007540009F747EA0A070760876807EA040ACF68C7
:1007640007FA09F747EA0A078760D0F804A0C6F336
:1007740000172AEA0303AF401F43476047E74FF0DF
:10078400010909FA04F995E74FF0020909FA04F995
:1007940090E74FF0030909FA04F98BE74FF00409D5
:1007A40009FA04F986E74FF0050909FA04F981E723
:1007B4004FF0060909FA04F97CE74FF0070909FA32
:1007C40004F977E70000024000080240000C0240F0
:1007D4000010024000140240001802400038024099
:1007E400003C0140001C0240002002402DE9F04F73
:1007F4000023DFF85091DFF85081DFF850A102E0C8
:100804000133102B70D0012606FA03F232EA0104F8
:10081400F6D14FF0030C03FA06F405680CFA04F45D
:10082400E44323FA0CF7254000EB8707056003F047
:100834000705D7F820B04FF00F0EAD000EFA05F5FE
:100844002BEA05053D628568254085604568D243ED
:1008540015404560C76823F0030505F180453C4019
:1008640005F59C35C46003EA0C04AF68A4000EFAD5
:1008740004FE484507EA0E073CD0504537D02A4EBF
:10088400B04239D0294EB0423AD0294EB0423AD083
:10089400284EB0423BD0284EB0423CD0274EB04206
:1008A4003DD0274EB04221D0092606FA04F4A742CF
:1008B400A6D1AC6824EA0E04AC60D8F80040144019
:1008C400C8F80040D8F804401440C8F80440D8F8E8
:1008D40008401440C8F80840D8F80C4001332240BE
:1008E400102BC8F80C208ED1BDE8F08F082606FA2C
:1008F40004F4DCE70024DAE7022606FA04F4D6E777
:100904000CFA04F4D3E7042606FA04F4CFE7052628
:1009140006FA04F4CBE7062606FA04F4C7E707262A
:1009240006FA04F4C3E700BF00080240000C0240CA
:10093400001002400014024000180240001C024053
:100944000020024000000240003C0140000402403C
:100954000369194214BF01200020704702B9090439
:1009640081617047436959404161704782B04FF4D7
:1009740080330193019B0B430193019BC361C161CC
:10098400019BC361C3690193C06980F48030C0F3E3
:10099400004002B0704700BF704700BF044A51696D
:1009A400014200D1704708B55061FFF7F5FF08BD5B
:1009B400003C014030B405686C6AC9B1AB6A0139C6
:1009C40004EB13440BD0002303F1400005EB80003B
:1009D40001334068DBB28B4204EB1044F4D3403162
:1009E40005EB810144EA02444C60002030BC7047AE
:1009F40044EA0244AC62002030BC70470368002023
:100A040059627047704700BFF0B50368DD0783B0D3
:100A1400044622D5AA498A6802F00C02042A00F08E
:100A2400E9808A6802F00C02082A00F0DF80A54BF6
:100A340022791A706368002B00F0CA80FFF7FAFB72
:100A44009F4D064605E0FFF7F5FB801B642800F286
:100A54009E802B689A03F6D523689F072CD5984A65
:100A6400916811F00C0F00F09980916801F00C016D
:100A7400082900F08F80E368002B00F0D680924BA9
:100A84008F4D01221A60FFF7D5FB064604E0FFF7FD
:100A9400D1FB801B02287AD82B689807F7D52968E0
:100AA400F82292FAA2F22369B2FA82F221F0F80152
:100AB40093400B432B6023681A0720D4590734D47E
:100AC400A369CBB17E4DAA6802F00C02082A6CD04F
:100AD400022B7E4B4FF000021A6000F0B780FFF744
:100AE400A9FB2C46054604E0FFF7A4FB401B0228A3
:100AF4004DD823689B01F7D4002003B0F0BD63698F
:100B0400002B55D0724B6E4D01221A60FFF792FBF9
:100B1400064604E0FFF78EFB801B022837D86B6F74
:100B24009F07F7D523685907CAD5654B694D00223D
:100B340001921A6C42F080521A641B6C03F08053C9
:100B44000193019B2B6843F480732B60FFF772FBC6
:100B5400064604E0FFF76EFB801B022817D82B68BB
:100B6400DA05F7D55C4B227A1A70A368002B00F0E3
:100B7400BF80FFF75FFB524D074641F288362B6F6B
:100B84009B079DD4FFF756FBC01BB042F7D9032047
:100B940003B0F0BD526856023FF56DAF484A126883
:100BA400950731D5E268012A2ED0012003B0F0BDAB
:100BB400474A434D1360FFF73DFB064604E0FFF749
:100BC40039FB801B0228E2D86B6F9807F7D4A9E79A
:100BD400FFF730FB3A4D064604E0FFF72BFB801B82
:100BE4006428D4D82B689B03F7D435E74A685002AD
:100BF4007FF51DAF324A126891037FF52EAF62680C
:100C0400002A7FF42AAFD0E72D4DF821286891FA05
:100C1400A1F12269B1FA81F120F0F8008A4002437F
:100C24002A601A077FF54AAF69E7274A244D136003
:100C3400FFF700FB064604E0FFF7FCFA801B0228DE
:100C4400A5D82B689907F7D4236835E7FFF7F2FA9C
:100C5400064604E0FFF7EEFA801B022897D82B68BB
:100C64009901F7D447F6C07696FAA6F64FF44032C7
:100C7400B6FA86F692FAA2F24FF07061B2FA82F0F6
:100C840091FAA1F1A26A676AE369D4F820E0E46A00
:100C9400520843EA0E0307FA06F6013A8240B1FA13
:100CA40081F1334304FA01F11343084A044C0B4322
:100CB40001216B601160FFF7BDFA054614E000BF27
:100CC40000380240023802400000474260004742B8
:100CD400800E47420070004070380240FFF7AAFAC5
:100CE400401B02283FF653AF23689A01F6D503E769
:100CF400FFF7A0FA064D074641F288362B6F980796
:100D04007FF5DEAEFFF796FAC01BB042F6D93EE798
:100D140000380240F0B50C4689B0164610B3234D96
:100D24002348002302932A6B42F004022A63296BAE
:100D3400059301F0040102914FF4007E032202990D
:100D44000692022703A90793CDF80CE00497FFF756
:100D54002BFCAA6844EAC60422F078421443AC602F
:100D640009B0F0BD114D01902A6B42F001022A63D3
:100D74002A6B02F00102019203464FF4807E0322A3
:100D840001990C480593022703A907930692CDF80D
:100D94000CE00497FFF708FCAB6823F0EC6343EA2C
:100DA40006021443AC6009B0F0BD00BF0038024035
:100DB4000008024000000240014B01221A60704703
:100DC4004C004742014B00221A6070474C004742D6
:100DD400194A936803F00C03042B2BD0082B27D15A
:100DE4005168536801F03F0113F4800F536847F6CC
:100DF400C07292FAA2F0B0FA80F003EA020323FA76
:100E040000F314BF0D480E48B0FBF1F000FB03F0F3
:100E1400094B4FF440325B6892FAA2F2B2FA82F2C2
:100E240003F44033D34001335B00B0FBF3F070476D
:100E340003487047014870470038024000127A00A6
:100E44000024F400574A136803F00F038B4208D2BE
:100E5400CBB21370136803F00F03994201D0012041
:100E6400704703689A072DE9F04106D54E4C856812
:100E7400A26822F0F0022A43A260DF0706460C466D
:100E840026D54268012A00F08780931E012B464B29
:100E94001B687BD9990728D5434DAB6823F003031E
:100EA4001343AB60FFF7C6F97368012B074641F2A1
:100EB40088384FD0022B58D0032B05D160E0FFF7C0
:100EC400B9F9C01B404564D8AB6813F00C0FF6D1D8
:100ED400344A136803F00F039C4209D2E3B213703F
:100EE400136803F00F039C4202D00120BDE8F08197
:100EF40033685A0706D52C49F0688A6822F4E05210
:100F040002438A601B0707D5274A3169936823F493
:100F1400604343EAC1039360FFF75AFF224B014643
:100F2400F0229B6892FAA2F2B2FA82F203F0F00382
:100F3400D3401E481E4AC35C002021FA03F3136009
:100F4400FFF740F90020BDE8F081FFF773F9C01BFB
:100F540040451ED8AB6803F00C03042BF5D1B7E76A
:100F6400FFF768F9C01B404513D8AB6803F00C03C6
:100F7400082BF5D1ACE7FFF75DF9C01B404508D855
:100F8400AB6803F00C030C2BF5D1A1E7980183D4D3
:100F9400ABE70320BDE8F081034B1B689D033FF5DD
:100FA4007BAFA2E7003C0240003802409474000882
:100FB40034040020014B1868704700BF340400203B
:100FC400084B4FF4E0529B6892FAA2F2B2FA82F212
:100FD40003F4E053D3400449044ACB5C1068D8407E
:100FE400704700BF003802409474000834040020A5
:100FF400084B4FF460429B6892FAA2F2B2FA82F272
:1010040003F46043D3400449044ACB5C1068D840DD
:10101400704700BF00380240947400083404002074
:101024000F22354B02601A68510310B455D50523BD
:101034004360314B30491B6813F0010318BF01238F
:10104400C360F8220B6892FAA2F2B2FA82F203F0B9
:10105400F803D34003610B6F5A0745D5052383601A
:10106400254B254A5B6F13F0010318BF012343612D
:10107400214B1B68DB014CBF0223012383615368AE
:1010840003F48003C361536803F03F0303625368AE
:1010940047F6C07494FAA4F1B1FA81F12340CB402D
:1010A400436253684FF4403191FAA1F103F44033A1
:1010B40003F58033B1FA81F15B00CB40836253685E
:1010C4004FF0706292FAA2F2B2FA82F203F0706305
:1010D400D340C3625DF8044B70471B6813F480333C
:1010E40018BF01234360A4E70B6F13F0010318BF7B
:1010F40001238360B4E700BF003802400E4B0F2287
:1011040002609A6802F0030242609A6802F0F002F8
:1011140082609A6802F4E052C2609B68DB0810B4F3
:1011240003F4E053054C036123685DF8044B03F0BA
:101134000F030B60704700BF00380240003C0240C0
:10114400704700BF08B5054BDB681B0604D5FFF7E5
:10115400F7FF034B80221A7008BD00BF003802401D
:101164000E380240F0B5046AD1F808E00E68134D59
:1011740024F001040462036A4768826923F00203CD
:1011840022F07302A84243EA0E0342EA060208D0A0
:101194000B4CA04205D049684760826141630362F9
:1011A400F0BDCE684D698C6923F0080327F44077BD
:1011B40033432C4323F004032743ECE700000140AE
:1011C40000040140F0B5046AD1F808E00E68144D3B
:1011D40024F480740462036A4768C26923F40073C8
:1011E40022F07302A84243EA0E2342EA060208D020
:1011F4000C4CA04205D049684760C261C1630362D8
:10120400F0BDCE684D698C6923F4006327F4405720
:1012140043EA06232C4323F4806347EA0417EAE7EE
:101224000000014000040140F0B4046A8F680E68B5
:10123400104D24F480540462026A4468C36922F4A1
:10124400005223F4E643A84242EA073243EA062363
:101254000AD005F58065A84206D049684460C36198
:10126400F0BC0164026270474D6924F4804444EA8E
:101274008514F2E70000014002684868936823F08F
:10128400700370B403430C6823F00703234350280E
:10129400936036D024D960280ED070280AD1CB6848
:1012A4008C6808699168234343EA002321F47F4151
:1012B4000B43936070BC7047106A8C680D6920F012
:1012C400100010629169136A21F4704123F0A003A5
:1012D40041EA053143EA0413916170BC136270471B
:1012E4004028E7D1146A106A0D6920F001001062E9
:1012F400936923F0F00343EA05139361146270BC0D
:101304007047146A156A0E69886825F0010515622C
:10131400936924F00A0123F0F00343EA061301431E
:10132400936170BC11627047704700BF704700BF83
:101334000222036810B580F83920196A41F21112AB
:101344001142044608D1196A40F24442114203D1C1
:101354001A6822F001021A602046FFF7E7FF002016
:1013640084F8390084F8380010BD00BF01680222F7
:1013740010B480F839200A680124034622430A6025
:10138400002083F839405DF8044B7047022203685B
:1013940080F83920196A41F21112114208D1196AF0
:1013A40040F24442114203D11A6822F001021A6049
:1013B400012380F839300020704700BF0368DA68E1
:1013C40042F00102DA601A6842F001021A60002059
:1013D400704700BF0368DA6822F00102DA60196A14
:1013E40041F21112114208D1196A40F244421142E9
:1013F40003D11A6822F001021A600020704700BF6E
:1014040070B590F83940E4B2022C21D090F83940FC
:10141400E4B2012C15D004461346C06922680D4E6F
:101424000D4DC663C5642C3203F0ECFC2368DA6806
:1014340042F48072DA601A6842F001021A600020F5
:1014440070BD19B1022380F83930E4E7002AF9D0DD
:10145400204670BD71270008912900080368DA68E6
:1014640022F48072DA601A6A41F211110A4208D138
:10147400196A40F24442114203D11A6822F001026F
:101484001A60012380F8393000207047704700BF8C
:10149400704700BF0222036810B580F83920196A2A
:1014A40041F211121142044608D1196A40F2444231
:1014B400114203D11A6822F001021A602046FFF794
:1014C400E7FF002084F8390084F8380010BD00BF1D
:1014D400036801201A6A00FA01F110B422EA010239
:1014E400144C1A621A6A1A62A34214D0124A934222
:1014F40011D0196A41F21112114208D1196A40F24D
:101504004442114203D11A6822F001021A600020F9
:101514005DF8044B7047196A41F211121142E8D187
:10152400196A40F244421142E3D15A6C22F4004257
:101534005A64DEE70000014000040140704700BF28
:10154400704700BF0222036810B580F83920196A79
:1015540041F211121142044608D1196A40F2444280
:10156400114203D11A6822F001021A602046FFF7E3
:10157400E7FF002084F8390084F8380010BD00BF6C
:1015840003680122186A02FA01F120EA010010B48A
:1015940018621A6A0A4C1143A34219620AD0094A12
:1015A400934207D01A685DF8044B42F00102002010
:1015B4001A6070475A6C42F400425A64F2E700BF62
:1015C4000000014000040140FFF7DABF036830B4B3
:1015D4001A6A184D012404FA01F122EA01021A627E
:1015E4001A6A1A62AB4216D0134A934213D0196A8C
:1015F40041F21112114208D1196A40F244421142D7
:1016040003D11A6822F001021A60012380F83930EC
:1016140030BC00207047196A41F211121142E6D120
:10162400196A40F244421142E1D15A6C22F4004258
:101634005A64DCE7000001400004014010B40C29A6
:1016440038D8DFE801F02B373737313737372537CC
:10165400373707000368DA6842F01002DA60186A64
:10166400184C012202FA01F120EA010018621A6AF8
:10167400A34241EA020119621ED0134A93421BD0CD
:101684001A685DF8044B42F0010200201A607047AA
:101694000368DA6842F00802DA60E0E70368DA68AF
:1016A40042F00202DA60DAE70368DA6842F0040220
:1016B400DA60D4E70368D2E75A6C42F400425A6411
:1016C400DEE700BF0000014000040140FFF7B6BFA1
:1016D40010B40C2940D8DFE801F0393F3F3F333FD5
:1016E4003F3F2D3F3F3F07000368DA6822F01002B6
:1016F400DA601A6A214C012000FA01F122EA0101A0
:1017040019621A6A1A62A34228D01D4A934225D04C
:10171400196A41F21112114208D1196A40F2444285
:10172400114203D11A6822F001021A6000205DF808
:10173400044B70470368DA6822F00802DA60D8E7DD
:101744000368DA6822F00402DA60D2E70368DA6830
:1017540022F00202DA60CCE70368CAE7196A41F2B0
:1017640011121142D4D1196A40F244421142CFD12C
:101774005A6C22F400425A64CAE700BF00000140D8
:1017840000040140FFF7A4BFF8B590F83940E4B273
:10179400022C15D090F83940E4B2012C0CD00D463F
:1017A40004460C2D68D8DFE805F00D6767674567C8
:1017B4006767346767675600002A5FD1002B5DD0E6
:1017C4002046F8BD2668006A3149324FC163C764B8
:1017D400114606F1340203F015FB2368DA6842F47B
:1017E4000072DA60186A2C4C012202FA05F120EA30
:1017F400010018621A6AA34241EA0201196241D047
:10180400264A93423ED01A6842F001021A60002030
:10181400F8BD2668806A1E491E4FC163C76411461D
:1018240006F13C0203F0EEFA2368DA6842F400623F
:10183400DA60D7E72668406A1549164FC163C76462
:10184400114606F1380203F0DDFA2368DA6842F43F
:101854008062DA60C6E72668C06A0D490D4FC1632D
:10186400C764114606F1400203F0CCFA2368DA6833
:1018740042F48052DA60B5E70368B3E7022480F8E3
:1018840039408CE75A6C42F400425A64BBE700BF0B
:10189400D9270008912900080000014000040140F4
:1018A400FFF772BF30B40C2942D8DFE801F03B41A6
:1018B4004141354141412F41414107000368DA6804
:1018C40022F48052DA601A6A224D012404FA01F1EA
:1018D40022EA010119621A6A1A62AB422AD01E4A2C
:1018E400934227D0196A41F21112114208D1196AA0
:1018F40040F24442114203D11A6822F001021A60F4
:10190400012380F8393030BC002070470368DA685E
:1019140022F40062DA60D6E70368DA6822F48062AF
:10192400DA60D0E70368DA6822F40072DA60CAE7A2
:101934000368C8E7196A41F211121142D2D1196A37
:1019440040F244421142CDD15A6C22F400425A640E
:10195400C8E700BF0000014000040140FFF7A2BF38
:10196400704700BF704700BF0222036810B580F8BB
:101974003920196A41F211121142044608D1196A38
:1019840040F24442114203D11A6822F001021A6063
:101994002046FFF7E7FF002084F8390084F8380078
:1019A40010BD00BF03680122186A02FA01F120EA9F
:1019B400010018621A6A114319621A6842F001029E
:1019C4001A600020704700BF036801201A6A00FAF9
:1019D40001F122EA01021A621A6A1A62196A41F2D0
:1019E4001112114208D1196A40F24442114203D142
:1019F4001A6822F001021A60002070470C292FD8BF
:101A0400DFE801F0282E2E2E222E2E2E1C2E2E2E16
:101A140007000368DA6842F01002DA60186A0122EB
:101A240002FA01F120EA010018621A6A11431962EC
:101A34001A6842F001021A60002070470368DA68ED
:101A440042F00802DA60E9E70368DA6842F0040267
:101A5400DA60E3E70368DA6842F00202DA60DDE79D
:101A64000368DBE70C2938D8DFE801F03137373772
:101A74002B3737372537373707000368DA6822F002
:101A84001002DA601A6A012000FA01F122EA010167
:101A940019621A6A1A62196A41F21112114208D1C2
:101AA400196A40F24442114203D11A6822F0010239
:101AB4001A60002070470368DA6822F00802DA60CE
:101AC400E0E70368DA6822F00402DA60DAE7036820
:101AD400DA6822F00202DA60D4E70368D2E700BFD2
:101AE400F8B590F83940E4B2022C12D090F839409D
:101AF400E4B2012C0FD00D4604460C2D5CD8DFE86F
:101B040005F0105B5B5B2E5B5B5B3D5B5B5B4C00E2
:101B14001BB12046F8BD002AFAD0022480F83940CF
:101B2400E9E72168006A254F254EC763C66434314E
:101B340003F068F92068C36843F40073C360026A61
:101B4400012303FA05F122EA01020262036A19433E
:101B54000162036843F0010303600020F8BD2168BB
:101B6400406A164F164EC763C664383103F04AF90B
:101B74002068C36843F48063C360E0E72168806A37
:101B84000E4F0F4EC763C6643C3103F03BF9206827
:101B9400C36843F40063C360D1E72168C06A074F98
:101BA400074EC763C664403103F02CF92068C3684C
:101BB40043F48053C360C2E70068C0E78927000884
:101BC4009129000810B40C293DD8DFE801F0363C17
:101BD4003C3C303C3C3C2A3C3C3C07000368DA6813
:101BE40022F48052DA601A6A012404FA01F122EA2A
:101BF400010119621A6A1A62196A41F21112114238
:101C040008D1196A40F24442114203D11A6822F001
:101C140001021A60012380F839305DF8044B00207A
:101C240070470368DA6822F40062DA60DBE703686D
:101C3400DA6822F48062DA60D5E70368DA6822F4AD
:101C44000072DA60CFE70368CDE700BF704700BFDA
:101C5400704700BF0222036810B580F83920196A62
:101C640041F211121142044608D1196A40F2444269
:101C7400114203D11A6822F001021A602046FFF7CC
:101C8400E7FF002084F8390084F8380010BD00BF55
:101C940003680F491A6A22F001021A621A6A42F0B2
:101CA40001021A621A6A22F010021A621A6A8B423C
:101CB40042F010021A6204D0064A934201D0002076
:101CC40070475A6C42F400425A640020704700BFC7
:101CD4000000014000040140036818491A6A22F018
:101CE40001021A621A6A1A621A6A22F010021A624D
:101CF4001A6A1A628B4212D0114A93420FD0196A9F
:101D040041F21112114208D1196A40F244421142BF
:101D140003D11A6822F001021A6000207047196A80
:101D240041F211121142EAD1196A40F244421142BD
:101D3400E5D15A6C22F400425A64E0E70000014005
:101D44000004014003681349DA6842F00202DA60D1
:101D5400DA6842F00402DA601A6A22F001021A62B6
:101D64001A6A42F001021A621A6A22F010021A6216
:101D74001A6A8B4242F010021A6204D0064A934255
:101D840001D0002070475A6C42F400425A6400208B
:101D9400704700BF000001400004014003681C4973
:101DA400DA6822F00202DA60DA6822F00402DA6009
:101DB4001A6A22F001021A621A6A1A621A6A22F074
:101DC40010021A621A6A1A628B4212D0114A9342A2
:101DD4000FD0196A41F21112114208D1196A40F266
:101DE4004442114203D11A6822F001021A60002011
:101DF4007047196A41F211121142EAD1196A40F28C
:101E040044421142E5D15A6C22F400425A64E0E79C
:101E14000000014000040140704700BF704700BF4C
:101E24000222036810B580F83920196A41F21112B0
:101E34001142044608D1196A40F24442114203D1C6
:101E44001A6822F001021A602046FFF7E7FF00201B
:101E540084F8390084F8380010BD00BFD1B10429DA
:101E640016D003681A6A22F001021A621A6A42F052
:101E740001021A621A6A22F010021A621A6A42F005
:101E840010021A621A6842F001021A6000207047B8
:101E94000368EFE703681A6A22F001021A621A6AF9
:101EA40042F001021A62EDE701B304291CD0036871
:101EB4001A6A22F001021A621A6A1A621A6A22F073
:101EC40010021A621A6A1A62196A41F21112114254
:101ED40008D1196A40F24442114203D11A6822F02F
:101EE40001021A60002070470368E7E703681A6A72
:101EF40022F001021A621A6A1A62E5E700292ED05A
:101F040004291ED003681A6A22F001021A621A6AAE
:101F140042F001021A621A6A22F010021A621A6A64
:101F240042F010021A62DA6842F00202DA60DA68F9
:101F340042F00402DA601A6842F001021A600020DA
:101F4400704703681A6A22F010021A621A6A42F091
:101F540010021A62DA6842F00402DA60EBE70368FE
:101F64001A6A22F001021A621A6A42F001021A6223
:101F7400DA6842F00202DA60DDE700BF03681A6A39
:101F8400D9B922F001021A621A6A1A62DA6822F0D6
:101F94000202DA60196A41F21112114208D1196A77
:101FA40040F24442114203D11A6822F001021A603D
:101FB400012380F8393000207047042913D022F01F
:101FC40001021A621A6A1A621A6A22F010021A626A
:101FD4001A6A1A62DA6822F00202DA60DA6822F017
:101FE4000402DA60D6E722F010021A621A6A1A6250
:101FF400DA6822F00402DA60CCE700BF2DE9F04190
:1020040090F83940BDF81860E4B2022C0FD090F873
:102014003940012C0ED004291F460C46054615D024
:10202400182950D0002930D00020BDE8F081204686
:10203400BDE8F081002A7CD0002B7AD00224042948
:1020440080F839401F460C460546E9D12968406AA4
:102054003A4B3B4CC3633A463346C464383102F0CE
:10206400D1FE2B68DA6842F48062DA601A6842F0C2
:1020740001021A601A6A22F010021A621A6A42F005
:1020840010021A620020BDE8F0812968006A2B4B17
:102094002B4FC363C7643346343102F0B3FE2B685D
:1020A400DA6842F40072DA601A6842F001021A60D7
:1020B4001A6A22F001021A621A6A42F001022046E8
:1020C4001A62BDE8F0812968006ADFF870801C4C50
:1020D400C0F83C803346C464343102F093FE29686E
:1020E400686A33463A46C0F83C80C464383102F02A
:1020F40089FE2B681A6842F001021A601A6A22F0FB
:1021040001021A621A6A42F001021A621A6A22F081
:1021140010021A621A6A42F010021A62DA6842F471
:102124000072DA60DA6842F48062DA600020BDE8A6
:10213400F081002E82D00120BDE8F08189270008BB
:102144009129000803681A6AD9B922F001021A62B7
:102154001A6A1A62DA6822F40072DA60196A41F2C1
:102164001112114208D1196A40F24442114203D1BA
:102174001A6822F001021A60012380F83930002025
:102184007047042913D022F001021A621A6A1A62F3
:102194001A6A22F010021A621A6A1A62DA6822F4BF
:1021A4000072DA60DA6822F48062DA60D6E722F03C
:1021B40010021A621A6A1A62DA6822F48062DA6019
:1021C400CCE700BFF8B590F83940069DE4B2022C84
:1021D40019D090F83940E4B2012C2AD0B2F5006F3E
:1021E40016460F4604462FD00FD8B2F5007F40D0D4
:1021F400B2F5806F41D0B2F5807F0FD1C0692268FB
:10220400244924E0BDB12046F8BDB2F5005F2CD0CE
:10221400B2F5804F39D0B2F5805F32D023683D43A8
:102224009D64DA6801213243DA60002084F83910B1
:10223400F8BD002BE6D00224B2F5006F80F83940D7
:1022440016460F460446CFD1806A22681249DFF849
:1022540054C0C1634FEA152E1946C0F84CC04C3225
:102264000EF1010302F0CEFDD8E7006B22680B49A2
:10227400EDE7006A22680849E9E7406A22680649EE
:10228400E5E7C06A22680449E1E7406B2268044933
:10229400DDE700BF71270008D9270008ED380008E2
:1022A4007D29000891290008F8B590F83940069D69
:1022B400E4B2022C19D090F83940E4B2012C2AD0AF
:1022C400B2F5006F16460F4604462FD00FD8B2F56C
:1022D400007F40D0B2F5806F41D0B2F5807F0FD13E
:1022E400C0692168244A24E0BDB12046F8BDB2F596
:1022F400005F2CD0B2F5804F39D0B2F5805F32D078
:1023040023683D439D64DA6801213243DA6000208A
:1023140084F83910F8BD002BE6D00224B2F5006F22
:1023240080F8394016460F460446CFD1806A2168AA
:10233400124ADFF854C0C2634FEA152E1A46C0F899
:102344004CC04C310EF1010302F05CFDD8E7006B88
:1023540021680B4AEDE7006A2168084AE9E7406A08
:102364002168064AE5E7C06A2168044AE1E7406B50
:102374002168044ADDE700BF7127000889270008A7
:10238400ED3800087D29000891290008B1F5006F97
:1023940038B50C46054630D012D9B1F5005F24D0CB
:1023A400B1F5804F1DD0B1F5805F02D1C06A02F053
:1023B4006BFD2B68D96821EA0404DC60002038BD79
:1023C400B1F5007F15D0B1F5806F06D0B1F5807FEF
:1023D400EFD1C06902F058FDEBE7406A02F054FD0A
:1023E400E7E7406B02F050FDE3E7006B02F04CFDC1
:1023F400DFE7006A02F048FDDBE7806A02F044FD93
:10240400D7E700BFFFF7C2BF90F83820012A0FD0EA
:1024140030B40346056801240220002283F8390001
:102424006961104683F8394083F8382030BC70471E
:102434000220704790F83830012B25D04B68F0B457
:1024440001250224AB4280F8385080F839401DD071
:102454000C2A10D8DFE802F0270F0F0F2F0F0F0FF1
:10246400070F0F0F37000B680268002B42D0D369A7
:1024740043F08003D3610023012280F8392080F8DF
:102484003830F0BC18467047022070470668CB68A5
:102494008F68B4680D693B4324F47F4443EA052301
:1024A4002343B360D4E70B680268A3B1936943F094
:1024B40080039361DFE70B680268B3B1936943F467
:1024C40000439361D7E70B6802684BB1D36943F4C7
:1024D4000043D361CFE7936923F080039361CAE794
:1024E400D36923F40043D361C5E7936923F400431C
:1024F4009361C0E7D36923F08003D361BBE700BFD6
:1025040090F83830012B40D002220368F0B480F8F0
:1025140039209A680C6822F47F4222F07702012560
:10252400402C80F838509A6073D018D9702C60D041
:102534002DD9B4F5805F57D0B4F5005F1CD18A68FB
:102544004D68CC6899682A4342EA042221F47F4109
:102554000A439A609A6842F480429A600CE0102C14
:1025640032D038D9202C6CD0302C05D19A6822F086
:10257400700242F037029A600023012280F8392069
:1025840080F83830F0BC1846704702207047502C51
:102594005ED0602CF0D11C6A4D68CE6824F0100423
:1025A4001C6299691A6A21F4704122F0A00242EA7D
:1025B400051241EA063199611A629A6822F07002A2
:1025C40042F067029A60D7E79A6822F0700242F0FC
:1025D40017029A60D0E7002CCED19A6822F07002DC
:1025E40042F007029A60C7E79A6822F007029A60ED
:1025F400C2E78A684D68CC6899682A4342EA042293
:1026040021F47F410A439A609A6842F077029A6003
:10261400B2E71D6A1E6A4C68CF6826F001061E6286
:102624009A6925F00A0122F0F00242EA07122143D6
:102634009A6119629A6822F0700242F047029A6025
:102644009AE79A6822F0700242F027029A6093E7B0
:102654001D6A1E6A4C68CF6826F001061E629A69DC
:1026640025F00A0122F0F00242EA071221439A619E
:1026740019629A6822F0700242F057029A607BE76E
:102684000268536823F080031943516000207047A7
:1026940090F83820012A01D10220704738B5044649
:1026A4000125022380F8385080F83930FEF7E4FD24
:1026B4002368DA6822F04002DA60DA68002122F442
:1026C4008042DA60084684F8395084F8381038BDFE
:1026D40090F83820012A01D10220704738B5044609
:1026E4000125022380F8385080F83930FEF7C4FD04
:1026F4002368DA6842F04002DA60DA68002122F4E2
:102704008042DA60084684F8395084F8381038BDBD
:1027140090F83820012A03460AD00C2922D8DFE891
:1027240001F00F212121152121211B212121090043
:10273400022070470268106C002283F8382070472A
:102744000268506B002283F8382070470268906B4F
:10275400002283F8382070470268D06B002283F887
:10276400382070470020E7E7704700BF08B5806B4A
:10277400012380F8393002F0DFFE08BD704700BF46
:10278400704700BF10B5846B226A0123904284F81D
:1027940039300FD0636A984213D0A36A984213D099
:1027A400E36A984205D0204602F0CEFE0023237649
:1027B40010BD08232376204602F0C6FE00232376AC
:1027C40010BD02232376EEE704232376EBE700BF54
:1027D400704700BF10B5846B226A0123904284F8CD
:1027E40039300FD0636A984213D0A36A984213D049
:1027F400E36A984205D02046FFF7EAFF00232376D8
:1028040010BD082323762046FFF7E2FF002323763A
:1028140010BD02232376EEE704232376EBE700BF03
:10282400704700BF03681A69910710B5044602D5C2
:10283400DA68920762D41A69500702D5DA68510738
:1028440049D41A69120702D5DA68100731D41A6913
:10285400D20602D5DA68D00618D41A69D10702D58F
:10286400DA68D2076BD41A69100602D5DA68110641
:102874006DD41A69520602D5DA68500657D41A691B
:10288400910602D5DA68920649D410BD6FF01002A1
:102894001A61DB69082213F4407F2276204661D155
:1028A400FFF76CFF2046FFF793FF00222368227690
:1028B400D3E76FF008021A61DB69042299072276D4
:1028C400204655D1FFF75AFF2046FFF781FF00222B
:1028D40023682276BBE76FF004021A619B69022227
:1028E40013F4407F227620463FD1FFF747FF20466E
:1028F400FFF76EFF002223682276A2E76FF0020240
:102904001A619B6901229B07027628D1FFF736FFE3
:102914002046FFF75DFF0022236822768BE76FF0E5
:10292400200220461A61BDE8104000F0DBBF6FF0C2
:1029340040021A612046FFF773FF23689FE76FF098
:1029440001021A61204602F0F7FD23688BE76FF05D
:1029540080021A61204600F0CFFF236889E702F065
:10296400F3FDD8E702F0F0FD9FE702F0EDFDC1E7CB
:1029740002F0EAFDABE700BF08B5806B012380F8E5
:102984003930FFF74DFF08BD704700BF08B5806BB5
:10299400012380F83930FFF7F7FF08BD90F83900BC
:1029A400704700BF90F83900704700BF90F83900B5
:1029B400704700BF90F83900704700BF90F83900A5
:1029C400704700BF90F83900704700BF364A03686B
:1029D400904270B454D0B0F1804F30D0A2F57C4214
:1029E40090422CD002F58062904228D002F5806299
:1029F400904224D002F57842904220D002F57052E1
:102A0400904230D002F5806290422CD002F5806270
:102A1400904228D0A2F59832904224D002F58062E8
:102A2400904220D002F5806290421CD08C680A68E3
:102A340003600123C462826270BC436170474A68C8
:102A4400CE688D680C6823F070031343174A23F48F
:102A54004073334390420360C56284621DD00123F6
:102A6400436170BC7047CD688C680A6823F4407376
:102A74002B4303600123C462826270BC43617047CC
:102A84004E68CC688D680A6823F07003334323F4DE
:102A9400407323430360C56282620B6903630123AD
:102AA400436170BC704700BF000001400004014056
:102AB400B8B190F8393010B503F0FF0204465BB1A9
:102AC400022384F839302068211DFFF77FFF01239A
:102AD40084F83930002010BD80F83820FEF724FC3B
:102AE400EEE70120704700BFB8B190F8393010B557
:102AF40003F0FF0204465BB1022384F839302068F6
:102B0400211DFFF763FF012384F83930002010BD35
:102B140080F83820FEF7BAFCEEE70120704700BFCA
:102B2400B8B190F8393010B503F0FF0204465BB138
:102B3400022384F839302068211DFFF747FF012361
:102B440084F83930002010BD80F83820FEF7F6FCF8
:102B5400EEE70120704700BFB8B190F8393010B5E6
:102B640003F0FF0204465BB1022384F83930206885
:102B7400211DFFF72BFF012384F83930002010BDFD
:102B840080F83820FEF7ECFEEEE70120704700BF26
:102B940000B390F8393070B503F0FF0204460D46D7
:102BA4009BB1022384F839302068211DFFF70EFF02
:102BB40023681A6822F008021A601A6801262A4358
:102BC4001A60002084F8396070BD80F83820FFF75F
:102BD4003DF8E6E70120704700284DD0F0B590F8A5
:102BE400393083B005460C4603F0FF02002B3ED07B
:102BF4002946022351F8040B85F83930836823F001
:102C040007038360FFF7E2FE2968236988688E69F9
:102C1400A769A268D4F800E026F4407CE6691B01A9
:102C240043EA0623266A0196E6683343019E2CF0A4
:102C3400030C42EA072242EA0C020F6A43EA063313
:102C44006669646822F47C4244EA061440EA0E0091
:102C540022F0FC0227F0AA078860274313430124CB
:102C640000208B610F6285F8394003B0F0BD80F815
:102C74003820FFF7D1F8BBE70120704770B4046A2D
:102C84001C4E24F001040462B0428469056A1FD01A
:102C9400B0F1804F1CD0A6F57C46B04218D006F5A2
:102CA4008066B04214D006F58066B04210D006F5B6
:102CB4007846B0420CD006F57056B04208D0A6F55E
:102CC4009436B04204D024F0030242F0010202E040
:102CD40024F0030422431B0125F00A05DBB222F091
:102CE400F00201F00A0129431A43826170BC0162B7
:102CF400704700BF00000140F8B590F83830012B50
:102D040038D00D4602230121044680F8381080F89B
:102D14003930002A30D0042A03683DD0082A1E6ABC
:102D24002A685DD026F480566F68E968AD681E6233
:102D3400D8691E6A20F440701203090340EA072090
:102D440002F4204289B220F4704026F42046324333
:102D54000143D9611A62DA6922F44062DA61DA69FC
:102D640042EA0525DD610123002084F8393084F826
:102D74003800F8BD0220F8BD95E80600EB6800684D
:102D8400FFF77CFF2368A868996921F00C01996119
:102D94009A6902439A61E6E71E6A2A686F68E968DD
:102DA400AD6826F010061E6298691E6A20F4407011
:102DB4001201090340EA072002F0A00289B220F4BC
:102DC400704026F0A0063243014399611A629A6961
:102DD40022F440629A619A6942EA05259D61C2E73C
:102DE40026F480766868E968AD681E62DF691E6A49
:102DF40027F0030712020901384302F42062C9B222
:102E040020F0F00026F4206632430143D9611A62AF
:102E1400DA6922F00C02DA61DA692A43DA61A2E79C
:102E2400F0B5046AD1F808E00E68144D24F01004DB
:102E34000462036A4768826923F0200322F4E642AD
:102E4400A84243EA0E1342EA062208D00C4CA042E0
:102E540005D049684760826181630362F0BDCE6832
:102E64004D698C6923F0800327F4406743EA061315
:102E74002C4323F0400347EA8407EAE700000140BB
:102E84000004014090F83830012B1CD010B50446E2
:102E94000223012084F8380084F839300C2A0BD836
:102EA400DFE802F0170A0A0A070A0A0A1B0A0A0AD2
:102EB40013002068FFF7B4FF0123002084F83930A1
:102EC40084F8380010BD022070472068FEF7ACF982
:102ED400F2E72068FEF746F9EEE72068FEF772F99C
:102EE400EAE700BF38B590F83830012B2BD00D46F7
:102EF40002230121044680F8381080F839300C2A66
:102F04001AD8DFE802F035191919071919194719E0
:102F14001919220029460068FFF782FF23682869EF
:102F2400996941F400619961996921F48061996119
:102F34009A6942EA00229A610123002084F8393018
:102F440084F8380038BD022038BD29460068FEF7F1
:102F54006BF923682869D96941F40061D961D96999
:102F640021F48061D961DA6942EA0022DA61E3E797
:102F740029460068FEF7F6F823682869996941F044
:102F840008019961996921F0040199619A690243E0
:102F94009A61D1E729460068FEF714F92368286985
:102FA400D96941F00801D961D96921F00401D961D5
:102FB400DA690243DA61BFE79A4274D0F0B590F857
:102FC4003850012D89B052D00C461E460AC9054618
:102FD4000127022085F838700191A768216985F8D6
:102FE40039000293E068636903970490069107939C
:102FF400002A5AD0042A3DD0002E41D0042E2ED1CE
:103004002B68A2691E6AE769216A26F010061E620F
:1030140098691C6A20F440701201090340EA0720F1
:1030240002F0A00289B220F4704024F0A0042243EC
:10303400014399611A629A6922F440629A619A681A
:1030440022F070029A609A6842F060029A609A686C
:1030540022F007029A609A6842F006029A60002001
:10306400012385F8393085F8380009B0F0BD022015
:1030740009B0F0BD01A92868FFF7D2FE002EBDD12A
:1030840004F118010EC92868FFF7F8FD2B689A6946
:1030940022F00C029A619A6822F070029A609A688F
:1030A40042F05002D2E70120704701A92868FEF7D8
:1030B40059F8A1E7036A10B401248C4023EA0403FD
:1030C4000362036A5DF8044B8A401A430262704744
:1030D400704700BF00284BD070B50223044688B067
:1030E4000D4680F83930FFF7F3FF211D2068FFF704
:1030F4006DFCAB68296820680322FFF7BFFD2068D8
:103104006E688269E96822F00C0282618369334344
:103114008361436843F0800343608368029123F032
:1031240070038360836843F040038360836823F003
:1031340007038360836843F00403836000257023DE
:1031440001A9019305950695079504950395FFF745
:1031540067FE23685A6822F070025A605A68012197
:1031640042F0500228465A6084F8391008B070BD05
:1031740001207047704700BF0222036810B580F831
:103184003920196A41F211121142044608D1196A10
:1031940040F24442114203D11A6822F001021A603B
:1031A4002046FFF7E7FF002084F8390084F8380050
:1031B40010BD00BF10B50446012200680021FFF7CE
:1031C40079FF2268136843F001031360002010BDE7
:1031D400002210B5044611460068FFF76BFF236810
:1031E400196A41F21112114208D1196A40F244429B
:1031F400114203D11A6822F001021A60002010BDA6
:1032040010B504460068C36843F00203C36001229A
:103214000021FFF74FFF2268136843F00103136096
:10322400002010BD002210B5044611460068FFF7C7
:1032340041FF2368DA6822F00202DA60196A41F277
:103244001112114208D1196A40F24442114203D1C9
:103254001A6822F001021A60002010BDF8B590F837
:103264003940E4B2022C28D090F83940E4B2012C61
:103274001DD0044616460D46012200210068104F59
:10328400FFF718FF2168206A0E4BC3632A463346B2
:10329400C764343101F0B6FD2368DA6842F4007281
:1032A400DA601A6842F001021A600020F8BD01B920
:1032B4001AB9022380F83930DBE72046F8BD00BF95
:1032C4009129000889270008002210B504461146F8
:1032D4000068FFF7EFFE2368DA6822F40072DA6010
:1032E400196A41F21112114208D1196A40F244429A
:1032F400114203D11A6822F001021A60002010BDA5
:1033040003680422186A02FA01F120EA0100186233
:103314001A6A114319625A6C42F400425A641A68D8
:1033240042F001021A600020704700BFFFF7E8BFB7
:103334000C2937D8DFE801F0303636362A363636EF
:103344002436363607000368DA6842F01002DA6081
:10335400DA6842F08002DA60186A042202FA01F1A3
:1033640020EA010018621A6A114319625A6C42F485
:1033740000425A641A6842F001021A600020704741
:103384000368DA6842F00802DA60E1E70368DA68A1
:1033940042F00402DA60DBE70368DA6842F0020212
:1033A400DA60D5E70368D3E7FFF7C2BF0C294FD82B
:1033B400DFE801F0484E4E4E424E4E4E3C4E4E4ECD
:1033C40007000368DA6822F01002DA601A6A04203F
:1033D40000FA01F122EA010119621A6A1A62196AF1
:1033E40040F24442114203D1DA6822F08002DA60EA
:1033F400196A41F21112114208D1196A40F2444289
:10340400114203D15A6C22F400425A64196A41F2FF
:103414001112114208D1196A40F24442114203D1F7
:103424001A6822F001021A60002070470368DA6803
:1034340022F00802DA60C9E70368DA6822F00402BD
:10344400DA60C3E70368DA6822F00202DA60BDE7F3
:103454000368BBE7FFF7AABFF8B590F83940E4B2B8
:10346400022C15D090F83940E4B2012C0CD00D4652
:1034740004460C2D65D8DFE805F00D6464645364DC
:103484006464316464644200002A5CD1002B5AD025
:103494002046F8BD2668006A2D492E4FC163C764D3
:1034A400114606F1340201F0ADFC2368DA6842F4F7
:1034B4000072DA60186A042202FA05F120EA0100B7
:1034C40018621A6A114319625A6C42F400425A642F
:1034D4001A6842F001021A600020F8BD2668806A6A
:1034E4001B491C4FC163C764114606F13C0201F03D
:1034F40089FC2368DA6842F40062DA60DAE7266855
:10350400C06A1349134FC163C764114606F14002F0
:1035140001F078FC2368DA6842F48052DA60C9E783
:103524002668406A0A490B4FC163C764114606F115
:10353400380201F067FC2368DA6842F48062DA60DA
:10354400B8E70368B6E7022480F839408FE700BF84
:10355400D927000891290008FFF77EBF10B40C2971
:103564004BD8DFE801F0444A4A4A3E4A4A4A384ABC
:103574004A4A07000368DA6822F48052DA601A6A59
:10358400042404FA01F122EA010119621A6A1A6296
:10359400196A41F21112114208D1196A40F24442E7
:1035A400114203D15A6C22F400425A64196A41F25E
:1035B4001112114208D1196A40F24442114203D156
:1035C4001A6822F001021A60012380F839305DF88C
:1035D400044B002070470368DA6822F40062DA6062
:1035E400CDE70368DA6822F48062DA60C7E703682B
:1035F400DA6822F40072DA60C1E70368BFE700BF4B
:10360400FFF7ACBF03680422186A02FA01F120EA4A
:10361400010018621A6A114319625A6C42F400429A
:103624005A640020704700BF036804201A6A00FA35
:1036340001F122EA01021A621A6A1A62196A41F253
:103644001112114204D1196A40F2444211420FD0BE
:10365400196A41F21112114208D1196A40F2444226
:10366400114203D11A6822F001021A600020704747
:103674005A6C22F400425A64EAE700BFFFF7D4BF51
:10368400FFF7D2BF0368DA6842F00202DA60DA6850
:1036940042F00402DA60186A042202FA01F120EA14
:1036A400010018621A6A114319625A6C42F400420A
:1036B4005A640020704700BF0368DA6822F00202EF
:1036C400DA60DA6822F00402DA601A6A042000FA86
:1036D40001F122EA01021A621A6A1A62196A41F2B3
:1036E4001112114204D1196A40F2444211420FD01E
:1036F400196A41F21112114208D1196A40F2444286
:10370400114203D11A6822F001021A6000207047A6
:103714005A6C22F400425A64EAE700BF90F8383049
:10372400012B20D0012310B480F8383031F030035D
:10373400036806D19C6824F070049C609C68214353
:103744009960596841F001015960596821F00401F8
:103754005960596800240A435A6080F8384020466A
:103764005DF8044B704702231846704790F83830D0
:10377400012B24D0012310B480F8383031F0300309
:10378400036806D19C6824F070049C609C68214303
:10379400996059685DF8044B41F00101596059681A
:1037A40021F00401596059680A435A60DA6800211B
:1037B40042F02002DA6080F838100846704702238D
:1037C4001846704790F83830012B28D0012370B484
:1037D40080F8383031F03003036806D19C6824F057
:1037E40070049C609C68214399605968056B0D4C7A
:1037F4000D4E41F001015960596821F004015960EE
:1038040059680A435A60DA68EC6342F400520024AF
:10381400EE64DA6080F83840204670BC70470221BC
:1038240008467047ED3800089129000890F83830B0
:10383400012B1ED002460220136870B482F83900AE
:103844005C6824F0700491E860005C605868284368
:103854005860986820F080009860996800240125D9
:1038640031439960204682F8395082F8384070BC60
:1038740070470220704700BF90F83830012B1AD0EF
:10388400F0B491E88C00CE680D694C6989691343E2
:103894003B4333432B43234305680B43012400215B
:1038A400022280F839206B6480F8394080F838109F
:1038B400F0BC0846704702221046704790F8382042
:1038C400012A0DD00346006810B4002201240165CA
:1038D400104683F8394083F838205DF8044B70476C
:1038E40002207047704700BF08B5806B012380F841
:1038F4003930FFF7F7FF08BD704700BF90F8390073
:10390400704700BF84B038B50A9D05AC012D84E82A
:103914000E00044614D0C36843F04003C36000F0B3
:10392400E3FC4FF48033A363089B012B03D1A3680A
:1039340043F02003A360BDE83840002004B0704782
:10394400836B119A23F480338363C36823F4840361
:1039540023F04003C360C368012A23F44013C36007
:1039640003D0204600F0C0FCDEE7C36843F48013B4
:10397400C360F6E702460020936843F001039360B6
:10398400704700BF02460020936823F00103936050
:10399400704700BF08B5C368012923F0C043C36062
:1039A40009D019B9C36843F08043C3603220FCF7DF
:1039B40047FC002008BDC36843F00053C3603220B5
:1039C400FCF73EFC002008BD84B02DE9F04308ACB0
:1039D40084E80E00836B129EDDF82C9043F40023E0
:1039E4008E4683631EB9836B43F400138363002301
:1039F400C0F8003E0D9BD0F80028C0F80028012B29
:103A040000F5006500F08580D0F8003843F003032A
:103A1400C0F800384FF484630361454B01E0013B77
:103A240002D002699106FAD410230361404B01E0ED
:103A3400013B02D00269D206FAD400224FF0FF33D0
:103A44002A616A61AB61EA61BEF1000F28D01446B5
:103A540000F510634FF09048FF27196801320029E0
:103A6400B4BFC3F800801C6072451C619F6003F101
:103A74002003F2D100210F4600F530634FF0904847
:103A84004FF0FF0C1C680131002CB4BFC3F8008058
:103A94001F608A421F61C3F808C003F12003F1D1FB
:103AA4002B69B9F1010F23F480732B6122D000221A
:103AB4006FF0804382614361B9F1000F03D18369E0
:103AC40043F01003836181691A4B0E9A0B4383619F
:103AD4001AB1836943F008038361012E05D1836918
:103AE40043F0804343F004038361BDE8F0430020C6
:103AF40004B07047104B2B632B6B43F4803343F0BB
:103B040003032B6300226FF08043296B82614361BE
:103B1400D9E70A9B23B9D0F80038C0F8003879E710
:103B2400D0F8003843F00103C0F8003872E700BF52
:103B3400400D030000383C8000018000890141F001
:103B440020010161054A01E0013A05D0036913F03F
:103B54002003F9D11846704703207047400D030035
:103B640010230361054A01E0013A05D0036913F00B
:103B74001003F9D11846704703207047400D030025
:103B840002460020D2F800381943C2F800187047E2
:103B940000F50062D0F8080810F0060012D093680F
:103BA40003F00603022B0CD0936803F00603062BE4
:103BB40007D0936803F00603042B14BF00200220EF
:103BC40070470320704700BF30B44B78012B20D0DE
:103BD4000C78D0F81C584FF4803300F50062A340F1
:103BE40000F530602B4300EB4410D36103681B04E1
:103BF4000CD48A68CC780168C2F30A0242F080537C
:103C040043F4004343EA84430B430360002030BC85
:103C140070470C78D0F81C58A34000F500629BB2A2
:103C240000F510602B4300EB4410D36103681A04C1
:103C3400ECD48A68CD780168C2F30A0242F080535A
:103C440043F4004343EA854343EA84530B4303604C
:103C540030BC0020704700BFF0B54B78012B27D053
:103C64000C7800F5306606EB44131A68120409D583
:103C7400D0F83C284FF48033A3401343C0F83C38B9
:103C84000020F0BDCF788D681968A205C5F30A0538
:103C940042EA87422A4311431E4D41F40041196010
:103CA4002E602B602B6843F400431A432A60DFE73D
:103CB4000D78CE7800F5106404EB4514236813F4F2
:103CC400004F8B6821D1C3F30A0E4EF08052B60424
:103CD40042F4004221683243AF053A430A4322606A
:103CE4000C490B6843F0805343F4004343EA0E034A
:103CF40033433B430B600123D0F83C28AB409BB2D9
:103D04001343C0F83C380020F0BDC3F30A0EB604D8
:103D1400AF05E5E79C09002010B44B780C78012B23
:103D240000F5006218D04FF48033D0F83C18A3405B
:103D3400DB431940C0F83C18D0F81C1800F530607B
:103D440000EB44100B40D36103685DF8044B23F48B
:103D54000043036000207047A340D0F83C189BB296
:103D6400DB431940C0F83C18D0F81C1800F510606B
:103D7400E6E700BF10B44B780C78012B14D000F5A3
:103D8400306303EB44134FF48032196821F400418B
:103D94001960D0F81C38A24023EA0203C0F81C388A
:103DA4005DF8044B0020704700F5106202EB4412EA
:103DB400A34011685DF8044B21F400411160D0F870
:103DC4001C289BB222EA0303C0F81C380020704769
:103DD4002DE9F0414C78012C3CD00D784C6900F56C
:103DE400306303EB45131D69ED0CED041D611D6982
:103DF40025F0FF5525F4C0151D6104B38D68624E8E
:103E04001F692C44013CB4FBF5F406EAC4463E4366
:103E14001E61A4B205FB04F41D69C4F312042C430F
:103E24001C61012A04BFCA685A61CA78012A4CD0AD
:103E34001A6842F004421A600020BDE8F0818C68E0
:103E44001D69C4F312042C431C611C6944F400244E
:103E54001C61E6E74D690E78002D42D000F5106331
:103E640003EB4613D1F80880D3F810C0464F4FEA4D
:103E7400DC4C4FEACC4CC3F810C0D3F810C02CF083
:103E8400FF5C2CF4C01CC3F810C0D3F810C005EBC1
:103E9400080E0EF1FF3EBEFBF8FE07EACE4747EAE6
:103EA4000C071F61D3F810E0C5F3120747EA0E07A9
:103EB4001F61CF78012F56D0012A61D0B440D0F8C9
:103EC40034683443C0F83448B2E7D0F8082812F410
:103ED400807F1A680CBF42F0005242F080521A6090
:103EE400A6E700F5106303EB4613012A1C6924F0CE
:103EF400FF5424F4C0141C611C6944F400241C61A4
:103F04001C694FEAD4444FEAC4441C61CC7824D0E1
:103F1400012C8DD1D0F8084814F4807F1C680CBFA4
:103F240044F0005444F080541C601C6844F0044481
:103F34001C60002A80D1ADB20335AD083FF47CAFDC
:103F4400CB6800F5805003EB850100EB063653F88F
:103F5400042B32608B42FAD16EE70F695F61012C4A
:103F64007FF466AFD6E71C6924F0C0441C611C6969
:103F7400012A44F000541C61CCD10C695C61C9E78E
:103F84000A695A6154E700BF0000F81FF0B44B7887
:103F9400012B27D00B784C6900F5306000EB4310FF
:103FA4000369DB0CDB040361036923F0FF5323F48F
:103FB400C01303618B689CB9046944F40024046150
:103FC4000469C3F312032343012A036104BFCB68CA
:103FD4004361036843F004430360F0BC002070476E
:103FE4004B61E9E74C6974B30F788E6800F5106390
:103FF40003EB4713B4421D694FEAD5454FEAC54563
:104004001D611D6925F0FF5525F4C0151D6134D9C6
:104014001C694E6144F400241C611D69C6F312043A
:104024002C43012A1C6125D036B1D0F83418012262
:10403400BA400A43C0F834281A6842F00442002007
:104044001A60F0BC70470B7800F5106000EB431366
:10405400012A186920F0FF5020F4C0101861186973
:1040640040F40020186118694FEAD0404FEAC0407C
:104074001861E1D10A695A61DEE71D6945F400253A
:104084001D611D69C4F312042C43012A1C61CCD1A7
:10409400F0E700BF10B49DF804406CB903339B08EB
:1040A4000AD000F5805000EB023201EB830051F896
:1040B400043B13608142FAD100205DF8044B704741
:1040C4000332920808D000F5805001EB82020368A5
:1040D40041F8043B8A42FAD1084670474B78012BD9
:1040E4000B7810D000F5306000EB43100368002B10
:1040F40003DB036823F080430360036843F4001385
:1041040003600020704700F5106000EB4310036863
:10411400002BEEDAF1E700BF4B78012B0B780CBFD4
:1041240000F5106000F5306000EB4310036823F4E1
:1041340000130360CB78023B012B03D8036843F0E0
:10414400805303600020704710B400F5106300F53D
:104154002E64FF229A6003F500712033A3428A6023
:10416400F8D100214FF0FF331024C0F81838C0F8FC
:1041740010180D4BC0F81418C0F81C18046101E0A5
:10418400013B02D00269D106FAD44FF4846303617F
:10419400054B01E0013B02D002699206FAD40020EB
:1041A4005DF8044B704700BF400D0300D0F80038A1
:1041B40023F4FE63C0F80038D0F80038090101F494
:1041C400FE611943C0F800180020704700F5006232
:1041D40008B5536823F0020303205360FCF730F85A
:1041E400002008BD00F5006208B5536843F00203DF
:1041F40003205360FCF724F8002008BD426980695D
:1042040010407047D0F8183800F50060C0691840B5
:10421400000C7047D0F8183800F50060C0691840E9
:1042240080B2704700F5306303EB411100F5006084
:104234008A6840691040704710B4D0F81048D0F82C
:10424400343800EB411000F51060CB40DB01DBB2E9
:104254008068234318405DF8044B70474369194351
:1042640041617047406900F001007047D0F800399F
:1042740023F4FF6323F0070300F50062C0F800395C
:10428400936803F00603042B05D1D0F8003943F0FA
:104294000303C0F80039536843F48073536000206B
:1042A400704700BF10B40024C0F8104BD0F8104B76
:1042B40044F40024C0F8104BD0F8104B44F0180418
:1042C400C0F8104BD0F8104B012944F0C044C0F89A
:1042D400104B05D14FF08021C0F8142BC0F8001BFF
:1042E40000205DF8044B70470B4B01E0013B10D0FC
:1042F4000269002AFADA0369074A43F001030361F9
:1043040001E0013A05D0036913F00103F9D118461D
:1043140070470320704700BF400D030084B030B5E0
:1043240004460020C4F8000EA06B20F48020A06393
:1043340083B0A06B07AD85E80E0020F40020A063D5
:10434400A36B099A089943F40013A363032AD4F8CE
:10435400003457D023F00403C4F800344FF48463CA
:104364002361304B01E0013B02D022699006FAD46C
:10437400102323612B4B01E0013B02D02269D206BA
:10438400FAD461B10022154604F5A0634FF0FF3062
:1043940001328A429860DD6003F12003F8D1D4F839
:1043A40040340193019B23F02E030193019BDB0412
:1043B40004D4019B43F48053C4F84034C820019BC7
:1043C400FBF73EFF00224FF0FF33B4F1A04FA26190
:1043D40063611FD04FF40071134A144B6162A262EF
:1043E400C4F800310A9B1BB9A36943F01003A3610D
:1043F400A2690F4B00201343A36103B0BDE8304012
:1044040004B07047B4F1A04FA4D043F00403C4F83F
:104414000034A3E78021074A074B6162A262C4F813
:104424000031DFE7400D0300000200010003E0005B
:10443400080020A380006000E0004000D0F80034B1
:1044440023F00303C0F80034D0F8002401F0030380
:1044540013430129C0F8003400F5806006D0022916
:1044640004BF41F270734360002070474BF6803301
:1044740043600020704700BF10B5044682B0D4F8F2
:1044840040340193019B23F02E030193019B43F4D9
:104494008073C4F840340A20FBF7D2FE019B00204D
:1044A40023F48073C4F8403402B010BD82B0D0F855
:1044B40040340193019B23F02E030193019B13F4D9
:1044C400805F019B01D101290AD0DB0405D521B904
:1044D400019B23F48053C0F84034002002B070479D
:1044E40043F48053C0F84034019B002002B070476D
:1044F40082B0D0F8403401930198C0F3414002B037
:10450400704700BF00F58060806880B2704700BFCC
:104514002DE9F04100F5A06404EB41149DF81C5012
:104524009DF81870BDF820604FF0FF3EC4F808E015
:10453400032D65D8DFE805F0514151024FFA82FCA2
:1045440040F29D6EBCF1000FC4F80CE05BDB9B05F0
:10455400D20203F0FE5302F4F042D0F818841A4356
:10456400012303FA01F141EA0801C6F30A06AB0488
:10457400C0F81814BCF1000F42EA060203F4402309
:10458400ACBF00214FF400411343022F826943EA78
:10459400010314BF00214FF400310B4342F00072B9
:1045A400032D826100F5806E236003D1236843F0FC
:1045B400005323600020BDE8F0814FFA82FC40F2F2
:1045C400252EBCF1000FC4F80CE0C0DAD4F80CE0DE
:1045D4004EF4C07EC4F80CE0B9E74FFA82FC40F216
:1045E4009D4EBCF1000FC4F80CE00CDBB0F1A04F01
:1045F400ADD0D4F80CE04EF0600EC4F80CE0A6E7A1
:104604004FFA82FCA3E7D4F80CE04EF4807EC4F8A1
:104614000CE09CE780B58AB002AFF860B96013463D
:10462400FB7100237B7700237B830023FB834FF400
:1046340080733B8300237B61FB68B3F1A04F2BD0D5
:10464400BB681B79002B27D1FB79002B0BD1BB68EE
:104654005B79012B07D1BB685B781946F86800F0D9
:1046640011FA00230DE1FB79012B15D1BB685B78AE
:104674005A01FB68134403F5A0631946BB685B78D1
:104684005A01FB68134403F5A063DB6823F060035D
:10469400CB60BB6800225A71BB681B69002B19D020
:1046A400BB681B69BA6812891344013BBA68128952
:1046B400B3FBF2F3FB83FA8B3B8B9A420CD93B8B13
:1046C400FB83FB8BBA68128902FB03F31A46BB68AF
:1046D4001A6101E00123FB83BB68DB78002B07D060
:1046E400FB8BBA68128902FB03F31A46BB681A6192
:1046F400BB685B785A01FB68134403F5A063194651
:10470400BB681B69C3F31202FB8BDB0418465F4BC7
:1047140003401A43BB689B7A5B0703F0C04313430F
:104724000B61FB79002B0AD0BB685B785A01FB68EC
:10473400134403F5A0631A46BB68DB685361FB6846
:1047440003F580639B6803F00103002B0CBF012376
:104754000023DBB27B77BB685B785A01FB681344A8
:1047640003F5A0631946BB685B785A01FB681344E0
:1047740003F5A0631B6823F000530B60BB685B78F0
:104784005A01FB68134403F5A0631946BB685B78C0
:104794005A01FB68134403F5A0631B687A7F520730
:1047A40013430B60BB685B785A01FB68134403F541
:1047B400A0631B687B617B6923F080437B617B6919
:1047C40043F000437B61BB685B785A01FB68134488
:1047D40003F5A0631A467B691360FB79002B4FD164
:1047E400BB68DB78002B4BD1BB681B69002B47D01F
:1047F400BB68DB79032B31D801A252F823F000BF48
:1048040015480008394800081548000839480008C8
:10481400BB681B6903339B087B837A8BFB68DB6A69
:104824009BB29A421CD9FB689B6943F02002FB6847
:104834009A6115E0BB681B6903339B087B837A8B01
:10484400FB6803F580631B699BB29A420AD9FB6833
:104854009B6943F08062FB689A6103E000BF02E059
:1048640000BF00E000BFBB68D968BB685A78BB686A
:104874001B6998B2002300930346F868FFF70AFC0B
:10488400002318462037BD4680BD00BF0000F81F36
:1048940080B483B000AF78607B6803F580635B69A4
:1048A4009BB218460C37BD465DF8047B704700BFC9
:1048B40080B485B000AF78600B46FB700023FB60CA
:1048C400FB785A017B68134403F5A0631B689B0CB7
:1048D40003F00303002B0BD0FB785A017B681344CD
:1048E40003F5A0631B689B0C03F00303022B60D148
:1048F400FB785A017B68134403F5A0631946FB78DF
:104904005A017B68134403F5A0631B6843F080439A
:104914000B607B68DB6A03F47F03002B35D1FB78E3
:104924005A017B68134403F5A0631946FB785A01C6
:104934007B68134403F5A0631B6823F000430B60FA
:10494400FB785A017B68134403F5A0631946FB788E
:104954005A017B68134403F5A0631B6843F00043CA
:104964000B60FB680133FB60FB68B3F57A7F1ED8EC
:10497400FB785A017B68134403F5A0631B6803F0BA
:104984000043B3F1004FECD074E0FB785A017B682C
:10499400134403F5A0631946FB785A017B6813445A
:1049A40003F5A0631B6843F000430B6062E000BFA3
:1049B40060E0FB785A017B68134403F5A063194651
:1049C400FB785A017B68134403F5A0631B6843F02A
:1049D40080430B607B6803F580631B699BB2002BEB
:1049E40035D1FB785A017B68134403F5A06319465B
:1049F400FB785A017B68134403F5A0631B6823F01A
:104A040000430B60FB785A017B68134403F5A063F1
:104A14001946FB785A017B68134403F5A0631B68AD
:104A240043F000430B60FB680133FB60FB68B3F5A4
:104A34007A7F1ED8FB785A017B68134403F5A06380
:104A44001B6803F00043B3F1004FECD012E0FB7895
:104A54005A017B68134403F5A0631946FB785A0195
:104A64007B68134403F5A0631B6843F000430B60A9
:104A740000E000BF002318461437BD465DF8047BF0
:104A8400704700BF80B485B000AF78600B46FB7000
:104A94000123FB730023BB60FB785A017B6813443A
:104AA40003F5A0631A46FB7BDB041946124B0B404B
:104AB40043F000431361FB785A017B68134403F508
:104AC400A0631B68BB60BB6823F08043BB60BB680A
:104AD40043F00043BB60FB785A017B68134403F541
:104AE400A0631A46BB681360002318461437BD46FA
:104AF4005DF8047B704700BF0000F81F80B586B0E6
:104B040000AF786000233B617868FEF73BFF10211B
:104B14007868FFF713F87868FFF722F80023FB752D
:104B24001FE0FB7D5A017B68134403F5A0631B68F7
:104B3400FB60FB6843F08043FB60FB6823F00043A9
:104B4400FB60FB6823F40043FB60FB7D5A017B6838
:104B5400134403F5A0631A46FB681360FB7D01331D
:104B6400FB75FB7D0F2BDCD90023FB7534E0FB7D4B
:104B74005A017B68134403F5A0631B68FB60FB6860
:104B840043F08043FB60FB6843F00043FB60FB6839
:104B940023F40043FB60FB7D5A017B68134403F557
:104BA400A0631A46FB6813603B6901333B613B69B0
:104BB400B3F57A7F0CD8FB7D5A017B68134403F567
:104BC400A0631B6803F00043B3F1004FECD000E096
:104BD40000BFFB7D0133FB75FB7D0F2BC7D97B68C1
:104BE40003F580631A464FF0FF3353617B684FF03F
:104BF400FF325A617868FEF7BDFE00231846183765
:104C0400BD4680BDF8B50446FBF714FB002C6FD0FD
:104C14000222236884F835201A68002122F0010258
:104C240084F8341005461A6005E0FBF703FB401BCB
:104C340005283BD823681A68D107F6D4A7686268A8
:104C4400E66825696169A0693A4332432A430A4305
:104C5400E169256A1F68344E02430A43616A2A43A4
:104C64003E40042942EA060227D01A605A6922F01B
:104C740007021143DAB22D4D5961103AA5FB021215
:104C840012092B4823F47F73815CE16523F003034D
:104C9400032A88BF04333F228A4001250021A365EB
:104CA40008469A60616584F83550F8BD03232022D4
:104CB4006265184684F83530F8BDE66A216BA56A4A
:104CC40031430A431A605A6945F0040122F007028D
:104CD400114378B9012D23D001D3022DCAD1F20199
:104CE400C8D5012340226265184684F83530F8BDE2
:104CF4000120F8BDB0F5005F04D0022DF1D9032DD9
:104D0400B8D1ECE7032DB5D801A252F825F000BFC5
:104D1400E74C0008E34C0008E74C0008254D000868
:104D2400B6F1C07FA6D1DCE73F8010F0ABAAAAAAF7
:104D3400A474000800282FD090F83530DBB2022B81
:104D44002BD003681649DAB270B4103A1C68154DBA
:104D5400A1FB02121209002124F0010421261C6087
:104D6400196059609960D96019615E6123F47F7399
:104D7400AD5CC56523F00303032A88BF04333F21D8
:104D84000022A940836570BC9960426580F8342094
:104D940080F835201046704701231846704700BF3D
:104DA400ABAAAAAAA474000870B490F83440012CE9
:104DB4000CD090F835400125AC4280F8345008D02E
:104DC400002380F83430022070BC7047022070BC8D
:104DD400704704680226002580F83560456525681B
:104DE400866825F48025402E256063600BBFA26091
:104DF400A160E160E260236843F0010323600020C6
:104E0400E2E700BFF0B490F83440012C0DD090F8E4
:104E14003540866D0125AC4280F8345008D000231B
:104E240080F834300220F0BC70470220F0BC704798
:104E340004680227002580F8357045652568876871
:104E440025F48025402F256063600ABFA260A1601D
:104E5400E160C16D18BFE2603F238B40026CB36018
:104E6400236843F016032360636943F0800363619E
:104E74001AB1236843F008032360236843F0010355
:104E840023600020CFE700BF70B50446866DFBF7B2
:104E9400D1F994F83530022B06D0802200236265C4
:104EA40084F83430012070BD2368216C1A6822F024
:104EB40016021A605A6922F0800205465A6131B31B
:104EC4001A6822F008021A601A6822F001021A60B5
:104ED40005E0FBF7AFF9401B05280FD823681B68D2
:104EE40013F00103F5D1E16D3F228A400121B26044
:104EF400184684F8343084F8351070BD202200231D
:104F04000320626584F8343084F8350070BDA26CE7
:104F1400002AD5D1D8E700BF90F83530022B03D052
:104F240080234365012070470268052380F83530EB
:104F3400136823F001031360002070472DE9F04F3C
:104F4400044683B092460091FBF774F923681B680A
:104F5400DD054AD4009B8146002B42D0E36D10212D
:104F64009940A56DDFF80C81D5F800B0404F01EAF7
:104F74000B0201925246A2461446019A0826002AC0
:104F840047D1611C08D0BCB3FBF754F9A0EB09006E
:104F9400844231D3DAF85C3006FA03F01BEA000FDE
:104FA40008FA03F107FA03F206D0DAF854E04EF0F7
:104FB400010ECAF854E0A8601BEA010F06D0DAF823
:104FC400540040F00200CAF85400A9601BEA020F22
:104FD400D7D0DAF8541041F00401CAF85410AA608A
:104FE400CBE7E36D20219940BBE74FF48073636501
:104FF400012003B0BDE8F08F20210022012303200B
:10500400CAF854108AF834208AF8353003B0BDE861
:10501400F08FDAF85400544620B1DAF85420D2075D
:1050240015D40120009A32B1102202FA03F3AB60C6
:1050340003B0BDE8F08F302202FA03F3AB60012223
:105044009DF8003084F8343084F83520D1E7504698
:10505400FFF71AFFDAF85C20302393400021012285
:10506400AB6010468AF834108AF83520C1E700BFD7
:105074000400800001008000F0B583B00023876D38
:105084000193C36D3D68624908229A401542044663
:105094000E6803D001680868400776D45D4A9A40D8
:1050A400154203D021684969080668D45A4A9A40CF
:1050B400154203D02168096889075AD410229A40FE
:1050C400154203D02168086800073FD420229A4083
:1050D400154203D021680868C00625D4636D0BB35C
:1050E400636DDA071AD50523216884F835300B6817
:1050F4004A4A23F00103A2FB06020B60920A02E073
:105104000B68DB0704D5019B01339A420193F7D264
:105114000022012384F8342084F83530E36C0BB189
:105124002046984703B0F0BDBA6094F83520052AAC
:105134003BD00B6813F4802F0B6854D019035FD550
:10514400E36B002BCAD020469847C7E7BA600A68C9
:1051540012F4802F0A6822D1D20503D40A6822F0FF
:1051640008020A60226C002AB0D020469047E36D02
:10517400ACE7BA60626D42F0040262659EE7BA6011
:10518400626D42F00202626590E7086820F0040054
:105194000860BA60626D42F0010262657EE7110345
:1051A400E0D5A26C002AE0D190E70A68206C22F0D6
:1051B40016020A604A6922F080024A6120B30A6832
:1051C40022F008020A603F22216D02FA03F3002054
:1051D4000122BB6084F8340084F835200029A1D072
:1051E400204688479EE713F48073A9D10A680120FA
:1051F40022F010020A6084F8343084F835009FE706
:10520400636C002B9FD169E7A26C002AD7D1DAE73F
:10521400340400200100800004008000B5814E1B8E
:10522400034690F8340001280DD010B493F83540AB
:105234000120844283F8340007D0002283F834200C
:105244005DF8044B704702207047052916D8DFE843
:1052540001F0120F0C0906031A650020EDE7DA6469
:105264000020EAE79A640020E7E75A640020E4E7B4
:105274001A640020E1E7DA630020DEE70020DCE7BF
:1052840090F83430012B02460BD090F835000123FE
:10529400984282F8343006D00120002382F834305A
:1052A4007047022070470629F6D8DFE801F01B1882
:1052B40015120F0C04000020D06310645064906435
:1052C400D0641065E9E700201065E6E70020D064AB
:1052D400E3E700209064E0E700205064DDE700206D
:1052E4001064DAE70020D063D7E700BF90F83500F8
:1052F400704700BF406D704710B5054C227832B935
:10530400044B13B10448AFF300800123237010BD94
:10531400A0090020000000007C740008074B10B5B1
:105324001BB107490748AFF300800748036823B15E
:10533400064B13B1BDE81040184710BD0000000033
:10534400A40900207C7400089C09002000000000CF
:10535400002301461A46184600F042B838B50A4CF4
:105364000A4D641BA4100AD004F18043013B05EBF1
:105374008305013C55F804399847002CF9D1BDE860
:10538400384002F07FB800BF107500080C750008A3
:1053940070B50F4E0F4D761BB61018BF002405D004
:1053A400013455F8043B9847A642F9D10A4E0B4DF7
:1053B400761B02F061F8B61018BF002406D0013441
:1053C40055F8043B9847A642F9D170BD70BD00BFA3
:1053D40004750008047500080C75000804750008BD
:1053E4002DE9F047254C2568D5F8484106468846FE
:1053F40092469946C4B360681F2817DC431C76B1F3
:1054040004EB80050122C5F888A0D4F888118240F5
:105414001143022EC4F88811C5F808911ED0023039
:10542400636044F820800020BDE8F087144B03B388
:105434004FF4C87001F014FC0446D0B1D5F84831DB
:10544400002780E88800C5F8484138460123C4F89D
:105454008871C4F88C71002EE1D0D1E7D4F88C1196
:105464000A43C4F88C21DAE705F5A674C5F8484167
:10547400C1E74FF0FF30BDE8F08700BFAC7400080F
:10548400656C0008024B13B10248FFF761BF704717
:1054940000000000615300080E4A136810B5ABB158
:1054A40018446946884209D80B490C4C0968A14242
:1054B40001D0884202D81060184610BD01F0CAFB22
:1054C4000C2303604FF0FF33184610BD044B1360E8
:1054D400E6E700BFBC09002030040020ADDEFECAB0
:1054E40020120020DFF834D0002103E00C4B5B587D
:1054F400435004310B480C4B42189A42F6D30B4AE2
:1055040002E0002342F8043B094B9A42F9D300F02D
:10551400BDF9FFF73DFF00F09BF87047FFFF012046
:1055240010750008000000209C0900209C09002040
:1055340020120020FEE700004FF480510148FBF7E1
:1055440011BA00BF000C02407047000030B595B09E
:10555400264B002101911A6C42F080521A641B6C94
:1055640003F080530193019B214B02911A6842F48A
:1055740080421A601B6803F480430293029B012358
:10558400089309934FF480030F93482302240425BE
:10559400119308A803230E94109512941393FBF708
:1055A40033FA00B1FEE70F23039305904FF48053C1
:1055B4000790214603A804940693FBF743FC044692
:1055C40000B1FEE7FBF7F6FC4FF47A73B0FBF3F09F
:1055D400FAF724FF2846FAF7D5FF224621464FF072
:1055E400FF30FAF7B9FE15B030BD00BF00380240F5
:1055F4000070004070B5154C86B0012600254FF4AC
:10560400805301A92046019302960495FAF7CCFF32
:105614004FF4005301A92046019302960495FAF72A
:10562400C3FF4FF4804301A92046019302960495D9
:10563400FAF7BAFF4FF4004301A9204601930296FA
:105644000495FAF7B1FF06B070BD00BF000C02402C
:105654002DE9F0438FB00024FAF7CAFDFFF776FF77
:105664007F4B01941A6B7F4842F010021A631A6B45
:1056740002F010020192019A02941A6B42F00402A1
:105684001A631A6B02F004020292029A03941A6BD0
:1056940042F080021A631A6B02F080020392039AAA
:1056A40004941A6B42F001021A631A6B02F00102AD
:1056B4000492049A05941A6B42F002021A631A6B5C
:1056C40002F002020592059A06941A6B42F008024F
:1056D4001A631B6B03F00803069322460821069BFA
:1056E400FBF73CF9224601215F48FBF737F92246D4
:1056F4004FF210015D48FBF731F90126082509A98D
:10570400584809950A960B940C94FAF74DFF09A989
:105714005548099605270A960B940C94FAF744FF0A
:10572400099509A9022550480A954FF006090B94DA
:105734000C940D97FAF738FF102309A94C480993E4
:105744000A950B940C94CDF83490FAF72DFFE023CE
:1057540009A9474809930A954FF004080B940C943F
:105764000D97FAF721FF09A94248CDF824800A943D
:105774000B94FAF719FF4FF4806309A93D48099384
:105784000A950B940C940D97FAF70EFF4FF2100341
:1057940009A9364809930A960B940C94FAF704FF66
:1057A4004FF4A45309A9304809930A950B940C9417
:1057B400CDF83490FAF7F8FE202309A92B48099371
:1057C4000A940B94FAF7F0FE4FF41073099309A9A5
:1057D400122328480A930B960C94CDF83480FAF7D8
:1057E400E3FE254B1F480A9309A909960B94FAF77F
:1057F400DBFE224B1B48099509A9214D0A930B9402
:10580400FAF7D2FE1F4AAC604BF6803385E80C00F1
:10581400284640F2F313EB602C61FDF749F900B11F
:10582400FEE74FF4805309A928460993FCF768FE64
:1058340000B1FEE70790089007A92846FDF7F6FF98
:1058440000B1FEE700F0E6FCFFF7D4FE074C14209D
:10585400FAF7F6FC4FF480412046FBF783F8F6E7AD
:10586400003802400010024000080240000C0240D0
:105874000000024000040240000011100000121059
:10588400F809002000040040FEE700000F49D1F8A9
:10589400883043F47003C1F888300D4B1A68002037
:1058A40042F001021A6098601A6822F0847222F4AD
:1058B40080321A60074A5A601A6822F480221A60F9
:1058C400D8604FF000638B60704700BF00ED00E0CC
:1058D400003802401030002408B5FAF7A3FCBDE8F4
:1058E4000840FAF75DBE70470148FCF79BBF00BF54
:1058F400F8090020014800F05EBE00BF340A002011
:1059040010B50368B3F1A04F86B02DD100244FF435
:10591400007301A91548019302940394FAF744FE15
:105924004FF4E05301930223029301A90A230F4881
:10593400059303940494FAF737FE0D4B5A6B42F027
:1059440080025A6300945A6C42F480425A645B6C3D
:1059540003F480430093432022462146009BFAF738
:10596400FBFC4320FAF72EFD06B010BD00000240F8
:105974000038024000F56171D0F8B40300F009B9B1
:105984001C2303FB0103D0F8B403D3F8E82100F08F
:105994002DB91C2303FB0103D0F8B4035A6C00F0A7
:1059A40057B9D0F8B40300F0D3B910B5C1680446B0
:1059B400003118BF0121D0F8B40300F0B7F9D4F8CE
:1059C400B403BDE8104000F092B9000010B50446DD
:1059D400D0F8B40300F0ADF92268D2F8003E43F0E9
:1059E4000103C2F8003E236A23B1034A136943F05A
:1059F4000603136110BD00BF00ED00E0D0F8B4034E
:105A040000F0A0B9D0F8B40300F0B0B9D0F8B403F2
:105A140000F0AAB9D0F8B40300F0AAB9D0F8B403DE
:105A240000F0A8B908B5027842BB154B0421C3F8AD
:105A3400B403C0F820324FF0A04083E803000221F1
:105A4400D9609961184601211A615A61DA611A62B2
:105A54005A62D9621A6300F02DFD08B1FFF714FFF2
:105A640080210748FAF7CAFF402200210448FAF7C8
:105A7400A1FF802201210248FAF79CFF002008BD03
:105A8400340A002008B5D0F8200200F07FFD002081
:105A940008BD10B51C46D0F820021346224600F07B
:105AA400D1FF002010BD08B5D0F8200200F0F8FFA7
:105AB400002008BD08B5D0F8200201F07AF80020D3
:105AC40008BD08B5D0F8200201F09FF8002008BDF9
